:100000000C9437020C947B020C947B020C947B02C0
:100010000C947B020C947B020C947B020C947B026C
:100020000C947B020C947B020C947B020C947B025C
:100030000C947B020C947B020C947B020C947B024C
:100040000C947B020C947B020C947B020C947B023C
:100050000C945D130C947B020C947B020C947B0239
:100060000C947B020C947B020C947B020C947B021C
:100070000C947B020C947B020C947B020C947B020C
:100080000C947B020C947B020C947B020C947B02FC
:100090000C947B020C947B020C947B020C947B02EC
:1000A0000C947B020C947B020C947B020C947B02DC
:1000B0000C9499130C947B020C947B020C94CC123C
:1000C0000C947B020C947B020C947B020C947B02BC
:1000D0000C947B020C947B020C947B020C947B02AC
:1000E0000C947B020C947B020C947B020C947B029C
:1000F0000C947B020C947B020C947B020C947B028C
:100100000C9493020C947B020C94AB120C947B0223
:100110000C947B020C947B020C947B020C942113B4
:100120000C947B020C947B020C947B020C947B025B
:100130000C947B020C947B020C947B020C947B024B
:100140000C947B020C947B020C947B020C9438126E
:100150000C947B020C9493120C947B020C947B0203
:100160000C947B020C947B020C947B020C947B021B
:100170000C947B020C947B020C947B020C947B020B
:100180000C947B020C947B020C947B020C947B02FB
:100190000C947B020C947B020C947B020C947B02EB
:1001A0000C947B020C947B020C947B020C947B02DB
:1001B0000C947B020C947B020C947B020C947B02CB
:1001C0000C947B020C947B020C947B020C947B02BB
:1001D0000C947B020C947B020C947B020C947B02AB
:1001E0000C947B020C947B020C947B020C947B029B
:1001F0000C947B020C947B020C947B025407210824
:100200002108210821082108EA06210821082108DF
:10021000F6072108210821082108210821081B08C8
:1002200043072108D90621084B0721082108210886
:100230002108210821082108210821082108210876
:100240002108210821083407210821082108210854
:100250002108210821082108210821082108210856
:10026000210821082108EE06E206C5067D0A540C85
:100270009D0AAF0D130C4A0C7D0A4C0A4C0A220C45
:100280004E0A5E0CC80A4C0A320C400D4C0A4E0A4B
:100290007D0A710C7D0A890C7D0A4F0C1A0C4C0AE0
:1002A0004C0A4C0A4C0A4C0A4C0A4C0AA70C980CF3
:1002B000040C360D4C0A7D0AC60BEA0BF90B4C0AEE
:1002C0004C0A4C0A4C0A4C0A4C0A640BAF0D030D45
:1002D000AF0D600D700D7D0A7D0A7D0AB50B4C0ACD
:1002E0004C0A4C0A4C0A4C0A4C0A7F0D922C922C58
:1002F000C92CD62CD62CDD2CE62CE62CED2C076355
:100300004236B79BD8A71A39685618AEBAAB558C87
:100310001D3CB7CC5763BD6DEDFD753EF6177231D0
:10032000BF000000803F08000000BE922449123E3A
:10033000ABAAAA2ABECDCCCC4C3E00000080BEABFE
:10034000AAAAAA3E00000000BF000000803F0000F3
:10035000000000084178D3BB4387D1133D190E3C00
:10036000C3BD4282AD2B3E68EC8276BED98FE1A937
:100370003E4C80EFFFBE01C4FF7F3F000000000045
:100380000C94EA0B0C94320C0C9437220C947F0DD5
:100390000C94710C0C94C92C0C9421080C944F0CE7
:1003A0000C945E0C0C944B070C94580F0C94640B3B
:1003B0000C94F90B0C94AF0D0C94D62C0C944C0AA5
:1003C0000C9454070C949D0A0C94EA060C94030DAB
:1003D0000C94A70C0C947D020C944E0A0C94890C7E
:1003E0000C944A0C0C9484020C94EE060C94B50BFD
:1003F0000C94DC250C94C80A0C94980C0C94C5063B
:100400000C94152D0C94C60B0C94130C0C943407FF
:100410000C941B080C94700D0C94400D0C94922CB1
:100420000C94040C0C94D9060C94F70E0C94DD2C4F
:100430000C94360D0C94F6070C94901D0C94430705
:100440000C947D0A0C94ED2C0C941A0C0C94540C06
:100450000C94600D0C94E2060C94220C0C944C1B32
:100460000C942C2D0C94E62CF70E3722580F1124E7
:100470001FBECFEFCDBFDFE3DEBF00E00CBF18BE75
:1004800019BE1ABE1BBE83EF9BE32FE38F3F92077B
:1004900041F0FC012FEF3FE38EEE8193E217F3076B
:1004A000E1F714E2A0E0B0E2EAEEF1E700E00BBF12
:1004B00002C007900D92A43BB107D9F71BBE1BE306
:1004C000A4EBB4E201C01D92A33FB107E1F712E033
:1004D000C6E3D2E000E006C021970109802FFE01AB
:1004E0000E943035C433D10780E00807A9F70E9485
:1004F000D20E0C94E3380C940000E091B424F091F7
:10050000B52481E080830895E091B624F091B7246A
:10051000E654FF4E81E080830895FA019083818341
:100520007283638308951F920F920FB60F92112466
:1005300008B60F9218BE09B60F9219BE0BB60F92ED
:100540001BBE2F933F934F935F936F937F938F9334
:100550009F93AF93BF93EF93FF93E091253BF0916F
:10056000263B309709F01995E0E0F1E080818F7724
:10057000808380898F77808B80A18F7780A3FF9184
:10058000EF91BF91AF919F918F917F916F915F910B
:100590004F913F912F910F900BBE0F9009BE0F907E
:1005A00008BE0F900FBE0F901F9018950F931F93CA
:1005B000CF93DF931F921F92CDB7DEB7E0E0F1E05B
:1005C00020812F77208320892F77208B20A12F77E0
:1005D00020A320E122A3AC01445B5F4F662757FDB7
:1005E0006095762F2FB72A83F894A8E2B1E04C9358
:1005F000052F162F272F332711960C931197AB0138
:100600006627772712964C932A812FBFAC014D5F46
:100610005F4F662757FD6095762F2FB72983F89493
:10062000ACE1B1E04C93052F162F272F33271196FD
:100630000C931197AB016627772712964C9329816B
:100640002FBF29E430E0248B358B2AE430E024A34B
:1006500035A3E0EDF0E020EC208324E22083FC01D0
:1006600010820F900F90DF91CF911F910F910895FD
:10067000CF93DF931F921F92CDB7DEB7BC01E0ECA2
:10068000F9E08CE4808311828FB78A83F894E8E1E3
:10069000F1E033EC308329E0218312828A818FBF1D
:1006A000E0E0F1E081E0828B4AE6438B89E490E070
:1006B000848B958B94E8908B80E182A343A38FB7C2
:1006C0008983F894ACE2B1E03C9311962C93119796
:1006D00012961C9289818FBF2AE430E024A335A3AF
:1006E00090A3CB010E94D6020F900F90DF91CF9183
:1006F0000895DC01FC0134969C0124593F4E94EF8F
:1007000090837596E217F307D9F71D921C92119703
:1007100012961D921C921397FD01E459FF4E84EF2F
:1007200082838187808B878B108211820895CF937B
:10073000DF93EC01FC01E255FF4E108231971082ED
:10074000319710820E94F22080E00E948A1ACE0126
:100750000E947903DF91CF910895CF93DF93EC014D
:100760000E94D71028813981FE01E20FF31F84EF28
:1007700084832B5E3F4F283680E1380710F020E05D
:1007800030E0288339830E94D910DF91CF910895FA
:100790002F923F924F925F926F927F928F929F9291
:1007A000AF92BF92CF92DF92EF92FF920F931F937F
:1007B000CF93DF93CDB7DEB72897CDBFDEBF1C0147
:1007C000DC01ED91FC9111973496E80FF91F8281BD
:1007D00090E0982F882723818C01020F111D0F8331
:1007E00018871123B4F0A655BF4E8D919C91119797
:1007F00099237CF01497800F911F2D913C911197B4
:10080000820F931F8D939C93119714961D921C92A7
:100810000CC0D101A655BF4E8D919C9111972F818F
:100820003885820F931F8D939C934480512C612CAB
:10083000712C742C6624552444249581892F90E0D2
:10084000A0E0B0E0DC0199278827480E591E6A1EF7
:100850007B1E878193018201080F111D211D311D0F
:100860004680512C612C712C762C652C542C442400
:10087000400E511E621E731E808590E0A0E0B0E025
:10088000782F6627552744279185892F90E0A0E08F
:10089000B0E0DC0199278827840F951FA61FB71F9A
:1008A00023856C017D01C20ED11CE11CF11C428527
:1008B00050E060E070E0762F652F542F4427D70179
:1008C000C601840F951FA61FB71F8B839C83AD8322
:1008D000BE8394858585C92ED12CE12CF12CFC2C6E
:1008E000EE24DD24CC24482F50E060E070E0BA0113
:1008F00055274427C40ED51EE61EF71E2785B701CF
:10090000A601420F511D611D711DC684D12CE12C21
:10091000F12CFE2CED2CDC2CCC24C40ED51EE61EB6
:10092000F71E91110AC0992787FD90958827990F86
:10093000881F9927880F991F02C082E090E0D1019B
:10094000A554BF4E2C91822B8C938088912CA12C86
:10095000B12CB82CAA2499248824818990E0A0E0A5
:10096000B0E0DC0199278827880E991EAA1EBB1EBD
:10097000838995018401080F111D211D311D828875
:10098000912CA12CB12CBA2CA92C982C8824800E47
:10099000911EA21EB31ED101A455BF4E8489817041
:1009A0008C931489169511702F81388512161306B1
:1009B000A4F4B701A601C10180559F4E89839A8393
:1009C000DC018D919C910E94D0276F817885E9810F
:1009D000FA81808191810E9440281F930B811C81A4
:1009E0002D813E81B301A2018F8198850E942E2125
:1009F000F101E055FF4E0190F081E02DEC53FB4FEB
:100A000081E00F900F811885101611060CF080E020
:100A10008083F101EE54FF4E80818823E1F00E9433
:100A20003720F101E055FF4E20813181882331F0DC
:100A3000F901E45EFB4F1082118205C091E0F901DB
:100A4000E75EFB4F9083F901E55EFB4F8083F10188
:100A5000EE54FF4E10822896CDBFDEBFDF91CF91BE
:100A60001F910F91FF90EF90DF90CF90BF90AF90CC
:100A70009F908F907F906F905F904F903F902F90BE
:100A800008953F924F925F926F927F928F929F92C2
:100A9000AF92BF92CF92DF92EF92FF920F931F938C
:100AA000CF93DF931F921F92CDB7DEB78C0169837E
:100AB0007A83FC01EC55FF4E8081DB018C937897A3
:100AC0009081992309F456C0893419F091111EC000
:100AD000DDC0980123573F4EF9018081A981BA8179
:100AE00011968C93D801A055BF4E8D919C91408159
:100AF00069817A816E5F7F4F04960E94C31BF80163
:100B0000E457FF4E80818F5F808319C0D801A357BF
:100B1000BF4EE980FA80EFEFEE1AFE0A40E050E0A7
:100B2000B80164577F4E8D91F70181937F014F5F2C
:100B30005F4FFB01208130E042175307A4F3A981E6
:100B4000BA818C91843311F0893431F4F801E4577F
:100B5000FF4E80818F5F09C0803331F4F801E45784
:100B6000FF4E80818F5F01C088E1F801E457FF4E9E
:100B7000108293C00E945D0F882E792E0E94860FEE
:100B8000D801ED91FC91E00FF11FDD24D394848115
:100B9000843F09F0D12C7801B0E5EB1ABFEEFB0AD7
:100BA000D701ED91FC91DF01A956BB4F4C901196F6
:100BB0003C90E756FB4F608051800E94FD1A0E94D6
:100BC000E921C62EB72EA82E992EE981FA8131820D
:100BD0004282D382D7018D919C91FC01E055FB4F5D
:100BE0002081253019F43596808101C080E0E981AB
:100BF000FA818483D801AA55BF4E11968C91119722
:100C000085838C9186837801F0E5EF1AFFEEFF0A69
:100C1000D7018D919C910E949528E981FA81878363
:100C200050866186BF01665F7F4FD7018D919C9191
:100C30000E946629E981FA81768687860E9437209C
:100C4000A981BA8150968C9381E090E00E949F1018
:100C5000E981FA81818B0E94EB1AA981BA815296AF
:100C60008C93529753969C9253975496AC92549768
:100C70005596BC9255975696CC925697F801E554E6
:100C8000FF4E808157968C9388E107C0E981FA81F5
:100C90008081843309F060CF59CF0F900F90DF919E
:100CA000CF911F910F91FF90EF90DF90CF90BF9069
:100CB000AF909F908F907F906F905F904F903F90FC
:100CC00008950F931F93CF93DF938C010E94D71049
:100CD00081E090E00E94A10F811107C081E090E0C7
:100CE0000E94E00FC82FCC0F01C0C1E080E090E06F
:100CF0000E94A10F24E0829FC00111249C012C2B93
:100D0000E90122FD09C080E090E00E94E00F38E098
:100D1000839FC0011124C82BF801E055FF4E80814C
:100D20009181FC01E055FB4F2081253019F40E9490
:100D30003329C82B0E94D9108C2FDF91CF911F919E
:100D40000F910895CF92DF92EF92FF920F931F932E
:100D5000CF93DF93EC01FC01E459FF4E8081A82F73
:100D6000B0E01296AE0FBF1F1196EC9111974E2F67
:100D700050E0FA01B197E833F10508F062C1882725
:100D8000E250FF4F8F4F0C94303512968C91882390
:100D900041F0FE01E055FF4E808191810E94882D37
:100DA00050C1FE01E055FF4E808191810E94722D5D
:100DB00048C181E012969C91911101C080E00E948F
:100DC0008A1A3FC1FE01E055FF4E808191810E9449
:100DD0009B2D37C181E00E94FF2033C112964C91B8
:100DE000129713960C9113971496FC9014971596DE
:100DF000AC91FE01E055FF4E80819181FC01E055F0
:100E0000FB4F2081253059F510E020E030E09801BB
:100E10001127002750E060E070E0742F6627552707
:100E20004427040F151F261F371F0A0F111D211DF0
:100E3000311D4F2D50E060E070E0762F652F542F6C
:100E40004427400F511F621F731F0E94DF2967E074
:100E5000FE01E055FF4E808191810E94802CFE01B1
:100E6000ED54FF4E1082EDC011E012968C9181116D
:100E700001C010E0112319F080E00E94FF20812FB3
:100E80000E940821DEC0CE010E946106FE01E657E5
:100E9000FF4E8083D6C066E0FE01E055FF4E8081A4
:100EA00091810E94802CCDC012960C91129710E077
:100EB000102F002713968C91080F111DFE01E0558D
:100EC000FF4EE080F180F701E055FB4F80818530D7
:100ED00029F00115110509F4D6C0B3C0F701E35696
:100EE000FB4F10823E961082729780819181081785
:100EF000190709F4A6C0670185ECC81A8BEFD80A58
:100F0000C60142960E947B22F701E556FB4F1082F4
:100F1000F6011186128616860115110509F452C0D4
:100F20000E94B31083E090E00E94A10F8111B7C02E
:100F300083E090E00E94E00F8111B3C080E090E078
:100F40000E94A10F882371F060E080E090E00E9491
:100F50006010F701E256FB4F108231961082118229
:100F600083E3A0C080E090E00E94E00F882371F04E
:100F700060E080E090E00E946010F701E256FB4FD5
:100F8000108231961082118288E48CC0F701E956F4
:100F9000FB4F80819181EC55F109838794878017FD
:100FA000910764F49801281B390B8681992787FDE6
:100FB00090958217930714F481E085878DE20E9453
:100FC000DB1007C0F701E55CFB4F108211820E9425
:100FD000B310F701E756FB4F0083118332C0891726
:100FE00080F5F701EF54FB4F80832BC012968C9154
:100FF000811106C060E081E090E00E94601021C095
:1010000060E081E090E00E94601081E090E00E944A
:10101000A10F882351F0FE01E155FF4E80818150E0
:10102000843378F084E380830CC06FEF81E090E03C
:101030000E94601006C012966C9181E090E00E94C0
:101040006010FE01E459FF4E8081E80FF11D94EF1E
:101050009283895F8C3108F080E0C459DF4E888329
:1010600029C06701F5ECCF1AFBEFDF0AC6014296F3
:101070000E947B22F701E556FB4F1082F601118694
:10108000128616869FCFF701E356FB4F10823E96DD
:101090001082729780819181892B19F7D2CF82E3D8
:1010A00001C087E4F701EF54FB4F9081992309F4C5
:1010B00098CF95CFDF91CF911F910F91FF90EF9037
:1010C000DF90CF900895EF92FF920F931F93CF93ED
:1010D000DF937C01FC01E459FF4E8081E80FF11D94
:1010E0008281843F71F0870104591F4EC7010E941D
:1010F000A206E8018881F801E80FF11D8281843F92
:10110000A9F7F70180819181DC011496AE0DBF1D16
:10111000E80FF91F8481843F09F44EC011968C9129
:101120001197833209F440C0F701E459FF4E8181E1
:10113000E80FF11D8281843F09F040C08701045906
:101140001F4E1CC0299121934F5F5F4F2C9130E0BF
:101150002F5F3F4F42175307A8F3E8018981895F4A
:101160008C3108F080E0F8018183C7010E94AD0353
:10117000E701A881B9811496AE0DBF1DE801E98190
:10118000F0E0CE0FDF1F8A81843F39F511968C91F4
:101190001197833231F18C91843FC1F480E025C0F6
:1011A00011968C91833261F4C7010E94C803C70174
:1011B0000E94AD0381E019C080E017C081E015C036
:1011C00080E013C080E011C080E00FC03296E00FD5
:1011D000F11FED0140E050E0B5CF8C91843F01F765
:1011E000F1CF8C91843F01F7EFCFDF91CF911F9129
:1011F0000F91FF90EF9008950F931F93CF93DF937C
:10120000EC0161E080E090E00E94890F0E94E921FA
:10121000611571058048910518F480E090E002C0E6
:1012200088E090E0FE01E554FF4E2081822B808310
:10123000F0978081882319F08130A9F13CC0E881C2
:10124000F981EC0FFD1F8481843F49F4FE01E459CC
:10125000FF4E8081E80FF11D8281843F61F160E0E3
:1012600081E090E00E94890FFE01E355FF4E8081EE
:10127000882359F031978081882339F081E03296B4
:101280008083319710820E94FF20FE01E255FF4EBD
:101290008081811110C0CE010E946308FE01E557D4
:1012A000FF4E808308C00E942921FE01E557FF4EB2
:1012B00091E089278083FE01E654FF4E80818823D8
:1012C00029F18E0100551F4EF801808191810E9405
:1012D000E92EF801808191810E949528811112C028
:1012E000F8010190F081E02DE055FB4F80818530C1
:1012F00049F4FE01E155FF4E80818150803510F0A8
:1013000080E58083FE01E654FF4E10820E94312268
:101310008823E1F00E94EB1A8823C1F0FE01E0551A
:10132000FF4E80819181FC01E853FB4F20812223F5
:1013300069F00E949528882349F0FE01E155FF4E8F
:1013400080818150813510F081E58083FE01E05578
:10135000FF4E0190F081E02DEF54FB4F8081108211
:10136000882359F0FE01E155FF4E9081992311F039
:10137000891718F4C155DF4E8883DF91CF911F91F3
:101380000F9108959F92AF92BF92CF92DF92EF920A
:10139000FF920F931F93CF93DF93FC010281138180
:1013A000E00FF11F2481243FB9F5C42ED12C960102
:1013B0002F5F3F4F2A3431058CF5972EE62EEC0136
:1013C0005801F4E0AF0EB11CA80EB91E0E94D71050
:1013D000FE01E00FF11FC4821C141D0474F4AE2D35
:1013E000B92DF5013196A6014F5F5F4FA40EB51ED2
:1013F0008D918193EA15FB05D9F78A819B814596EA
:10140000883620E1920710F080E090E08A839B8389
:101410000E94D91080E003C08FE001C082E0DF911C
:10142000CF911F910F91FF90EF90DF90CF90BF90E1
:10143000AF909F9008952F923F924F925F926F923C
:101440007F928F929F92AF92BF92CF92DF92EF9254
:10145000FF920F931F93CF93DF9300D0CDB7DEB7EA
:10146000DB013C9111962C911197FC01EC55FF4E3C
:1014700020831196EC911197CE2ED12CF601B197C5
:10148000E034F10548F4F42E4B018C018827EA5C26
:10149000FE4F8F4F0C94303583E774C3DB011296F7
:1014A0008C91882351F16801B0E5CB1ABFEEDB0ABD
:1014B000D601ED91FC911197EA53FB4F81E08083B7
:1014C0008D919C910E94B828F60180819181FC0148
:1014D000EB53FB4F2081222361F07E972AE030E01E
:1014E00020833183DC01A755BB4F339680818C93D9
:1014F00004C0FC01EA53FB4F10828F2D90E001974E
:1015000007970CF02EC3D8011296ED91FC9113971A
:10151000E00FF11F8481843F09F025C3B1E0BF15BE
:1015200018F44FEF4F0D01C041E0B4016F5F7F4FE2
:10153000C8010E94C20980E025C3D8011296ED912E
:10154000FC911397E00FF11F8481843F09F00DC3D4
:10155000F801EB55FF4E8081831709F408C33083EF
:1015600044E16F5F7F4FC8010E94C209F401838587
:10157000811105C02485221F2227221F01C021E0DE
:10158000F801E554FF4E8081822B808380E0FAC20F
:10159000D80112968D919C911397F801E80FF91FCD
:1015A0002481243F09F0E5C28E33B0E19B0720F08F
:1015B000FC01EE53F04102C0FC01BA96E00FF11FAE
:1015C0008481843F09F0D7C2F801EB55FF4E80813A
:1015D000831709F4D2C230835401EDE0AE0EB11C82
:1015E0006401F1E1CF0ED11C740129E4E20EF11C7B
:1015F000480185E4881A8FEE980A180190E5291AA7
:101600009FEE390AF50180E090E0DC012191820F24
:10161000911DA11DB11DEC15FD05C1F7F50120813E
:10162000211107C0F60133974081441F4427441F0E
:1016300001C041E0F4012081242B20830097A10503
:10164000B105B1F1F10120813181F901E254FB4F83
:1016500040815181628173812C013D0140945094FD
:1016600060947094441655066606770640F48FEF32
:101670009FEFDC0180839183A283B3830BC0F901C8
:10168000E254FB4F840F951FA61FB71F80839183E1
:10169000A283B383D101ED91FC91E953FB4F81E02B
:1016A000808344E1B5016B507109C8010E94C209F1
:1016B000B4E1AB0EB11CE4E1CE0ED11CAE14BF04FC
:1016C00009F0A0CF80E05EC285E0F801E457FF4E4C
:1016D0008083B4960190F081E02DE055FB4F80812E
:1016E000853011F086E301C080E0F801E357FF4E3A
:1016F00080833397808180FD05C0982F927081FD93
:1017000003C003C094E301C099E4F801E257FF4E1F
:10171000908382FD05C0982F987083FD03C003C09D
:1017200093E301C098E4F801E157FF4E908384FDF4
:1017300005C0982F907285FD03C003C091E301C0DE
:1017400096E4F801E057FF4E9083982F907486FD41
:1017500003C0882324F402C092E301C097E4F80197
:10176000EF56FF4E908380E00DC2DB0112969C91F4
:10177000F801E055FF4E0190F081E02D911101C07C
:1017800091E0E25EFB4F908380E0FCC1F801E05500
:10179000FF4E80819181FB01628104960E94911B22
:1017A000D40113968C91882371F0F801E055FF4E17
:1017B00080819181FC01E75EFB4F21E0208332961E
:1017C000108280E0DFC1F801EE54FF4E81E080839B
:1017D00080E0D8C1F801E055FF4E0190F081E02D86
:1017E000E75EFB4F1082F801EE54FF4E108280E05E
:1017F000C9C1FB018281F801E357FF4E8083319715
:1018000081E2808380E0BEC1F801E554FF4E108282
:10181000DB0112966D917D918D919C9115970E949F
:101820007F1A80E0AFC1F801E355FF4E81E080836D
:1018300080E0A8C1F801E355FF4E10823196108276
:1018400080E0A0C1F801E055FF4E0190F081E02D4D
:10185000E555FB4F81E08083FB0182810E94DB1014
:1018600080E090C1DB0113964C91139750E0542F08
:10187000442714968C911497480F511DF801E05598
:10188000FF4E8081918112966C9104960E942B1DCF
:1018900080E078C1C8010E94970380E073C1C8014D
:1018A0000E94790380E06EC1F801E457FF4E81E0A9
:1018B0008083319686E0808380E064C1F801E4573C
:1018C000FF4E84E08083319681E08083319687E00B
:1018D0008083319682E08083319680EE808380E041
:1018E00051C1F801E457FF4E84E18083FB0142813E
:1018F00050E0B80162577F4EF801E055FF4E8081FD
:1019000091810E944D27F801E357FF4E808380E0CC
:1019100039C1AB014D5F5F4FF801E055FF4EDB0170
:1019200012966C91808191810E94422D80E02AC1A3
:10193000F801E055FF4E80819181FC01E55CFB4F91
:10194000258521111CC11186128680E01BC1FB0177
:10195000228530E0322F22278385280F311D6681B2
:101960007581F480938100551F4ED801ED91FC9153
:10197000E55CFB4FD40112964C918CE3849FA0014F
:10198000112442835383899FC0011124848395834A
:10199000F682778360871186128615861686118AED
:1019A0003695279536952795ABE7B4E10E94BC3470
:1019B000969587958787908BD801ED91FC91E65598
:1019C000FB4FD40117968C918083D801ED91FC9147
:1019D000E653FB4FD40118962C91189730E0322F24
:1019E000222719968C91282B20833183F80180813E
:1019F0009181FC01E55CFB4F25852111C2C0118658
:101A0000128680E0BFC0DB0114968C9190E0A0E0CC
:101A1000B0E0782F662755274427F4019581892F58
:101A200090E0A0E0B0E0DC0199278827840F951FA3
:101A3000A61FB71F2781820F911DA11DB11D2681F1
:101A4000422F50E060E070E0762F652F542F44273E
:101A50009A01AB01280F391F4A1F5B1FE1840085E3
:101A6000638182810E94F22180E08CC0F801E457FA
:101A7000FF4E81E0808331968CE0808380E082C0DD
:101A800081E0F801E457FF4E8083B7968081811191
:101A900009C033970190F081E02DEA5EFA4F808112
:101AA000882339F0F801E357FF4E86E8808380E011
:101AB00069C0F801E357FF4E87E8808380E062C089
:101AC000B80163577F4EF801E055FF4E8081918148
:101AD0000E94A429F801E457FF4E808380E052C0A1
:101AE000F801E457FF4E81E08083B80163577F4ED1
:101AF000B496808191810E948E2980E043C083E06A
:101B0000F801E457FF4E8083B49680819181FC01F7
:101B1000E055FB4F2081253061F0F801E357FF4E7F
:101B200086E3808331969FEF90833196908380E0A7
:101B300029C0AE014F5F5F4FBE016D5F7F4F0496BE
:101B40000E941B1CF801E357FF4E8B818083898123
:101B50009A81319690833196808380E013C080E033
:101B600011C086E70FC08FE00DC08FE00BC080E092
:101B700009C08FE007C08FE005C080E003C080E0AF
:101B800001C080E02396CDBFDEBFDF91CF911F91D2
:101B90000F91FF90EF90DF90CF90BF90AF909F900C
:101BA0008F907F906F905F904F903F902F9008950F
:101BB0008F929F92AF92BF92CF92DF92EF92FF925D
:101BC0000F931F93CF93DF9300D0CDB7DEB7DC0127
:101BD0008FB78A83F894ECE1F1E082818181908172
:101BE0008A818FBF9D012D5F3F4F921B9B838C91FC
:101BF000882309F4C7C08D0113968C911397813106
:101C000009F075C0E0EDF0E0348185808681209197
:101C1000D7001196ED90FC9012976D019CE4C90ECF
:101C2000D11C4B81912CA12CB12CBA2CA92C982C15
:101C3000882490E0A0E0B0E0DC0199278827880E96
:101C4000991EAA1EBB1E830E911CA11CB11C822FC3
:101C500090E0A0E0B0E0B82FAA2799278827880E47
:101C6000991EAA1EBB1E89288A288B2841F445503C
:101C7000B8016C5F7F4FC7010E941B0A01C081E061
:101C800093EFF801E45BFF4F908331968083F70177
:101C9000E155FF4E80811082F801E25BFF4F8083A7
:101CA0008AEAE95BFF4F808331978083B801615BEB
:101CB0007F4FC7010E944105885FE82EF12CD801B3
:101CC00014968C91F601EE0DFF1D35978083B4E0DC
:101CD000EB1AF1089701A60160E070E0CB010E94C9
:101CE0008534A6014E0D5F1D0E948D0208C011961D
:101CF000ED91FC911297EB54FF4E81E08083C80177
:101D00000E94D602F80181819281FC01ED54FF4EC0
:101D10002081211109C033970190F081E02DEA5E06
:101D2000FA4F8081882319F1D801AA56BF4F21E0CC
:101D30002C93E0E0F1E02FEF3FEF24A335A320E860
:101D400022A3CD01AA2797FDA095BA2F2FB72983EB
:101D5000F894E8E2F1E08083492F5A2F6B2F772720
:101D60004183CD01AA27BB27828389818FBFE0E011
:101D7000F1E080818068808380898068808B80A189
:101D8000806880A32396CDBFDEBFDF91CF911F91E6
:101D90000F91FF90EF90DF90CF90BF90AF909F900A
:101DA0008F9008950E94051864E872E085E090E045
:101DB0000E9430128AE096E30E943A208091FF351B
:101DC000909100360E94D8268FE495E20E949703F6
:101DD00088EB94E20E94380378948FE495E20E94A5
:101DE000FC0888EB94E20E94D80DA895F6CFCF931B
:101DF000DF938BE096E30E941926CFE4D5E21092A0
:101E0000D9351092DA351092DB351092F3358FEF19
:101E10008093F4351092F5351092F6351092F7351F
:101E20001092F8351092F9351092FA358BE08093C4
:101E3000FE358BE096E38093FF3590930036109249
:101E400001361092023681E08093033610920436F8
:101E50001092093610920A360E94B61AC093B62420
:101E6000D093B724E8EBF4E21082C183D28389E4F3
:101E7000ABEBB4E2ED0119928A95E9F78AEA838324
:101E8000A4E0B5E29AE4ED0119929A95E9F78C93F2
:101E90008BEB80934E25E093B424F093B5248DE72B
:101EA00092E08093253B9093263BDF91CF9108955C
:101EB0008BE096E30E94D7260895ADB7BEB7FD012B
:101EC00023EF3BE38DB79EB7A217B307C9F08D91FF
:101ED0009D910D90BC91A02D8E3E9E4EAE4EBE4E5D
:101EE00051F410C080819181A281B3818E3E9E4EBB
:101EF000AE4EBE4E39F034972E173F0799F702C009
:101F0000E3EFFBE3CF01835F9B43089583EF9BE304
:101F100008958130910541F08230910541F0892B7F
:101F200041F4E0E0F6E005C0E0EEF7E002C0E0EEEC
:101F3000F7E0662319F081E08583089581E08683C8
:101F400008950F931F9381309105A9F01CF4892BFC
:101F500039F032C082309105C9F0039711F12CC0DD
:101F600008E91AE328E040E256E061E080E496E008
:101F70000E94E51322C005E010E024E040E256E0B4
:101F800062E080E296E00E94E51317C008EE13E0DD
:101F900020E140E056E060E280E096E00E94E51338
:101FA0000CC00EE110E020E840E456E061E080E67D
:101FB00096E00E94E51301C081E01F910F91089502
:101FC000CF92DF92EF92FF920F931F938130910592
:101FD00009F11CF4892B41F058C08230910581F140
:101FE000039709F440C051C00F2EF2ECCF2EDD2430
:101FF000D394F02D0F2EF8E2EF2EF12CF02D08E9FE
:102000001AE328E040E256E061E080E496E00E94B6
:10201000BA143CC00F2EFEEECF2EF2E0DF2EF02DD4
:102020000F2EF4E6EF2EF12CF02D05E010E024E069
:1020300040E256E062E080E296E00E94BA1426C0D8
:10204000C12CD12C0F2EF0E1EF2EF7E2FF2EF02D58
:1020500008EE13E020E140E056E060E280E096E028
:102060000E94BA1413C0C12CD12C0F2EF4E1EF2E14
:10207000F12CF02D0EE110E020E840E456E061E0A4
:1020800080E696E00E94BA1401C081E01F910F9192
:10209000FF90EF90DF90CF9008958130910541F04F
:1020A0008230910541F0892B41F4E0E0F6E005C073
:1020B000E0EEF7E002C0E0EEF7E081E0878308950C
:1020C000009719F0019759F00895662321F081E0F7
:1020D00080934506089581E0809346060895611136
:1020E0000BC010922A3B82E080932606E0E4F9E0E0
:1020F00081818F7E818308956F3F59F410922A3B2E
:1021000082E080932506E0E4F9E081818F7E81837F
:102110000895669570E0CB01880F991F880F991F6D
:10212000880F991F680F791FE0E4F9E060A771A795
:1021300081818061818381E080932A3B08950097AB
:1021400019F0019729F00DC080914806817008951B
:1021500080912A3B811106C0809128068695817066
:10216000089580E00895E0E0F9E081818F7E818329
:1021700081E0809366060895CF93DF93AB010097CB
:1021800019F40E94B31010C0C0E0D9E023E1298304
:102190009C01A4E6BDEB0E94BC349A0140E050E0F3
:1021A0000E94EF3428A739A7DF91CF910895F894C2
:1021B00008957894089590E080932C0890932D08CA
:1021C00008958091240290912502089587E08093DC
:1021D000000A089560E081E090E00E946010E0E075
:1021E000F6E080E286838283A0E8B6E088E012967B
:1021F0008C93129782E012968C93129781E012963C
:102200008C938285837F8287109200020895E0E894
:10221000F6E084E0828388E0818382E0818381E04C
:102220008183E0E0F6E080E28183858382858C60B3
:10223000828785E08093000288E1838B828B0895FA
:10224000E0E8F6E081E081838185837F8187E0E0BB
:10225000FAE0108288E081870895E0E8F6E081E006
:1022600081838185846081870895E0E8F6E0418577
:10227000218550E030E0237F4217530719F4FC0119
:102280001082089521E0FC012083E0E8F6E08185DA
:10229000837F81870895FC018081882331F0E0E805
:1022A000F6E08185837F8460818708956F927F92B5
:1022B0008F929F92AF92BF92CF92DF92EF92FF9256
:1022C0000F931F93CF93DF931F92CDB7DEB78C018F
:1022D0007B01A42ECE0101960E943511E0E8F6E0C4
:1022E00082E0868381E0868388E18093A40AB12C12
:1022F000A114B10409F44AC03701C801C12CD12C82
:10230000E0EAFAE00F2EFAEA8F2EF02D6894992475
:1023100096F839C0218125FFFDCF0115110559F02F
:10232000DC012D913C91042E02C0369527950A942C
:10233000E2F7208301C08082218126FFFDCFE114D6
:10234000F10481F0208130E0042E02C0220F331FFF
:102350000A94E2F7D3016D917C911197262B372BCC
:102360002D933C93918248505109483FBFEF5B0742
:1023700089F62FEFC21AD20AA2E06A0E711C0296E9
:10238000CA14DB0419F048E050E0C4CF1092A40A4C
:1023900088E080938106CE0101960E944B110F9038
:1023A000DF91CF911F910F91FF90EF90DF90CF9031
:1023B000BF90AF909F908F907F906F900895809185
:1023C00008068695817091E0892708958091080616
:1023D00083FB882780F991E0892708956EEC75E4E6
:1023E00080E090E008958130910571F01CF4892B14
:1023F00039F016C08230910559F0039769F010C08A
:1024000028E0E0E4F6E00EC020E2E0E4F6E00AC0F6
:1024100020E1E0E4F6E006C024E0E0E6F6E002C0F9
:10242000E0E4F6E0662311F02583089526830895FD
:102430009C01AEEAB1E00E94BC3428EE33E040E0FB
:1024400050E00E94EF34CA01B9010895882321F0B9
:1024500088E080936506089588E080936606089575
:10246000880F991FFC01E55DF44C6083718308952A
:102470001F920F920FB60F92112408B60F9218BE3A
:1024800009B60F9219BE0BB60F921BBE2F933F9346
:102490004F935F936F937F938F939F93AF93BF936C
:1024A000EF93FF9380912A3B882319F082E0809379
:1024B00025068091353B9091363B892B29F0E091A0
:1024C000353BF091363B19958091283B9091293B03
:1024D00001968093283B9093293B8091283B9091D3
:1024E000293B883E934041F480E090E00E944D10EB
:1024F0001092283B1092293BFF91EF91BF91AF9131
:102500009F918F917F916F915F914F913F912F910B
:102510000F900BBE0F9009BE0F9008BE0F900FBE1C
:102520000F901F9018951F920F920FB60F921124C3
:1025300008B60F9218BE8F9380912A3B882319F01A
:1025400082E0809326068F910F9008BE0F900FBEF9
:102550000F901F9018951F920F920FB60F92112493
:1025600008B60F9218BE8F939F93809108069091A2
:10257000273B892781FF03C087E08093000A809171
:1025800008068093273B9F918F910F9008BE0F9074
:102590000FBE0F901F9018951F920F920FB60F92BB
:1025A000112408B60F9218BE09B60F9219BE0BB6C9
:1025B0000F921BBE2F933F934F935F936F937F9325
:1025C0008F939F93AF93BF93EF93FF93E0E0FAE075
:1025D000108288E081878091080681FF0CC080917D
:1025E0002D3B90912E3B892B89F0E0912D3BF09172
:1025F0002E3B19950BC080912B3B90912C3B892B46
:1026000029F0E0912B3BF0912C3B19958091080625
:102610008093273BFF91EF91BF91AF919F918F9155
:102620007F916F915F914F913F912F910F900BBED2
:102630000F9009BE0F9008BE0F900FBE0F901F9015
:1026400018951F920F920FB60F92112408B60F9291
:1026500018BE09B60F9219BE0BB60F921BBE2F9370
:102660003F934F935F936F937F938F939F93AF931A
:10267000BF93EF93FF938091313B9091323B892B35
:1026800029F0E091313BF091323B1995FF91EF91A8
:10269000BF91AF919F918F917F916F915F914F917A
:1026A0003F912F910F900BBE0F9009BE0F9008BE67
:1026B0000F900FBE0F901F9018951F920F920FB69C
:1026C0000F92112408B60F9218BE09B60F9219BEC8
:1026D0000BB60F921BBE2F933F934F935F936F9355
:1026E0007F938F939F93AF93BF93EF93FF938091CB
:1026F000333B9091343B892B29F0E091333BF091AF
:10270000343B1995FF91EF91BF91AF919F918F91BC
:102710007F916F915F914F913F912F910F900BBEE1
:102720000F9009BE0F9008BE0F900FBE0F901F9024
:1027300018951F920F920FB60F92112408B60F92A0
:1027400018BE09B60F9219BE0BB60F921BBE2F937F
:102750003F934F935F936F937F938F939F93AF9329
:10276000BF93EF93FF938091880682FF04C082E0BD
:10277000809392060EC08091373B9091383B892B15
:1027800029F0E091373BF091383B199581E0809337
:102790009206E0E8F6E0848582608487FF91EF91FD
:1027A000BF91AF919F918F917F916F915F914F9169
:1027B0003F912F910F900BBE0F9009BE0F9008BE56
:1027C0000F900FBE0F901F9018952F923F924F922F
:1027D0005F926F927F928F929F92AF92BF92CF92B1
:1027E000DF92EF92FF920F931F93CF93DF9300D06E
:1027F00000D0CDB7DEB77C01D62E1A01C22EFC0167
:102800008481862389836183FA012283F7016583AA
:10281000B80180E090E00E9455364B015C012BEA44
:102820003AEA4AE251E40E940B372B013C0120E0D6
:1028300030E040E85FE30E94BD3588230CF474C0AB
:1028400020E030E040E051E4C501B4010E940B37C4
:102850006A837B838C839D8320E03FEF4FE757E4BF
:102860000E94073718160CF045C020E030E04AE718
:1028700054E4C501B4010E94C1352B013C0120E0A4
:1028800030E04AEF55E40E940B374B015C0120E039
:1028900030E040E85FE30E94BD3588232CF120E062
:1028A0003FEF4FE757E4C501B4010E940737181600
:1028B000B4F420E030E040E251E4C301B2010E94F0
:1028C0000B370E9429366115710581F120E233E052
:1028D000C9010197F1F761507109D1F727C0C5010E
:1028E000B4010E94293602C061E070E0CB0101977B
:1028F000F1F71CC020E030E04FE753E4C301B20120
:102900000E940737181654F46A817B818C819D815F
:102910000E942936CB010197F1F70BC0C301B20128
:102920000E9429366E8302C0F1E0FE838E818A9573
:10293000F1F7F1018085C82281E009F080E09981FA
:10294000911102C0F701D6822696CDBFDEBFDF917E
:10295000CF911F910F91FF90EF90DF90CF90BF909C
:10296000AF909F908F907F906F905F904F903F902F
:102970002F9008952F923F924F925F926F927F9285
:102980008F929F92AF92BF92CF92DF92EF92FF927F
:102990000F931F93CF93DF93CDB7DEB76C97CDBF67
:1029A000DEBF3C01362E4A8B5B8B222E2601DC01DA
:1029B00014968C9186238983B80180E090E00E9470
:1029C00055366E877F87888B998B2BEA3AEA4AE2E5
:1029D00051E40E940B376E837F83888799870E941A
:1029E00029361A866C8F00E213E04701A12CB12C26
:1029F000C601A0E0B0E0888F998FAA8FBB8FD3016A
:102A000015963C9220E030E040E85FE36E817F81E4
:102A1000888599850E94BD3588230CF474C020E018
:102A200030E040E051E46E857F85888999890E9475
:102A30000B376B017C0120E03FEF4FE757E40E942A
:102A4000073718160CF04BC020E030E04AE754E49A
:102A50006E857F85888999890E94C1356A837B83C9
:102A60008C839D8320E030E04AEF55E40E940B37D1
:102A70006B017C0120E030E040E85FE30E94BD355F
:102A8000882334F120E03FEF4FE757E4C701B60158
:102A90000E9407371816BCF420E030E040E251E411
:102AA0006A817B818C819D810E940B370E9429362F
:102AB0006115710551F1C8010197F1F76150710974
:102AC000D1F780E025C0C701B6010E94293602C0B7
:102AD00061E070E0CB010197F1F780E019C020E0E0
:102AE00030E04FE753E46E817F81888599850E94AD
:102AF0000737181664F4C701B6010E942936CB01C6
:102B00000197F1F707C081E003C080E001C08C8D20
:102B10008A95F1F7F3013682C501B4010E9455365A
:102B20006B017C012BEA3AEA4AE251E40E940B373E
:102B30006A837B838C839D8320E030E040E85FE301
:102B40000E94BD3588230CF47BC020E030E040E0DB
:102B500051E4C701B6010E940B376C8B7D8B8E8BC5
:102B60009F8B20E03FEF4FE757E40E94073718168E
:102B70000CF049C020E030E04AE754E4C701B60158
:102B80000E94C1356A837B838C839D8320E030E083
:102B90004AEF55E40E940B376B017C0120E030E0E6
:102BA00040E85FE30E94BD35882334F120E03FEF29
:102BB0004FE757E4C701B6010E9407371816BCF467
:102BC00020E030E040E251E46A817B818C819D818C
:102BD0000E940B370E9429366115710599F1C801D1
:102BE0000197F1F761507109D1F760E02CC0C7017E
:102BF000B6010E94293602C061E070E0CB01019766
:102C0000F1F760E020C020E030E04FE753E46A8154
:102C10007B818C819D810E940737181654F46C8942
:102C20007D898E899F890E942936CB010197F1F712
:102C30000CC06A817B818C819D810E94293603C0F2
:102C400061E001C060E06A95F1F7AA89BB89189636
:102C50008C91822109F4A7C04114510409F4A5C044
:102C6000BA85B111A4C0688D798D8A8D9B8D0E9423
:102C700055366B017C012BEA3AEA4AE251E40E94A4
:102C80000B376A837B838C839D8320E030E040E8B0
:102C90005FE30E94BD3588230CF47DC020E030E066
:102CA00040E051E4C701B6010E940B376A877B8779
:102CB0008C879D8720E03FEF4FE757E40E9407375E
:102CC00018160CF049C020E030E04AE754E4C70190
:102CD000B6010E94C1356A837B838C839D8320E08B
:102CE00030E04AEF55E40E940B376B017C0120E095
:102CF00030E040E85FE30E94BD35882334F120E0F6
:102D00003FEF4FE757E4C701B6010E940737181697
:102D1000BCF420E030E040E251E46A817B818C81A8
:102D20009D810E940B370E94293661157105A9F11A
:102D3000C8010197F1F761507109D1F760E02EC029
:102D4000C701B6010E94293602C061E070E0CB01E4
:102D50000197F1F760E022C020E030E04FE753E454
:102D60006A817B818C819D810E940737181664F4EB
:102D70006A857B858C859D850E942936CB010197CC
:102D8000F1F7E1E0EA873BCE6A817B818C819D810E
:102D90000E94293603C061E001C060E06A95F1F746
:102DA000F1E0FA872CCE80E003C081E001C081E031
:102DB0009981992319F0D30115963C926C96CDBF59
:102DC000DEBFDF91CF911F910F91FF90EF90DF90C9
:102DD000CF90BF90AF909F908F907F906F905F90BB
:102DE0004F903F902F900895E0E4F6E080E48183D7
:102DF000868384E08687E0E0F8E083E481838FEFD8
:102E000090E086A397A314A615A687E08083168278
:102E10000895E0E0F6E081E081838683E0EEF7E06C
:102E20008183868382E0818386830895E0E0F6E0F3
:102E300038E0328384E0828322E02283A0E0BAE09B
:102E400081E016968C93169749E05DE396964D9334
:102E50005C93979790E2918398E1918B128A138A01
:102E600090E19283248B218528602187228522602E
:102E70002287218523602187E0E0F2E0928313829C
:102E800027E02483318380A391A382A3089588ED52
:102E900084BFE0E8F0E08BE2808381E08183000082
:102EA00000000000828180FDFDCF86E0809350000D
:102EB000E0E5F0E0818181FFFDCF818182FFFACFE3
:102EC000E0E5F0E086818683E0E6F0E080818160E5
:102ED0008083E8E6F0E080818160808388ED84BFB4
:102EE00081E0809340000000000000000895E0E6CB
:102EF000F6E080E4818382E0818328E0218394E00E
:102F0000918330E1328330E2328330E8328339E337
:102F1000348B258395838583928590619287818701
:102F2000E0EAF0E08281866082830895E0E4F6E0E2
:102F300080E2818388E0818380E1818384E08283F1
:102F400082E0848B818582608187E0E4F8E081E023
:102F50008083118283E0868384E197E086A397A330
:102F60000895E0E4F9E0118285E0808381E08783C1
:102F70002AE834E026A337A38683E0EAF0E08281E2
:102F8000816082830895E0E8F6E081E081838583B3
:102F900098E09183958392E091839683828B8385D9
:102FA00084608387E0EAFAE08FE1868380EE87839E
:102FB00082EC85830895A0E6B6E081E011968C93BB
:102FC0001197E0E4F6E090E8928316968C9392E0F5
:102FD000978BE0E0F9E024E63DEB26A337A380835E
:102FE00010A611A60895A0E4B6E091E011969C9376
:102FF0001197E0E2F6E082E0818316969C93868347
:1030000084E0828388E0828308950E9447170E94AB
:1030100077170E9496170E94B1170E94C3170E944B
:10302000DB170E94F3170E9416170E9409170E94CF
:10303000F4160895CF93DF93EC0190E8292F2A9599
:10304000F1F7E0E8F6E03085A8ECB0E01197F1F791
:10305000208522FB222720F99A95F1F7288332FB5D
:10306000992790F941E050E0921711F040E050E0CC
:10307000CA01DF91CF910895CF93DF931F92CDB70F
:10308000DEB7198284E080938206CE0101960E9409
:103090001A18019731F08981882331F080E090E09F
:1030A00005C082E090E002C082E090E00F90DF91E6
:1030B000CF910895882321F094E09093860603C071
:1030C00094E090938506E8ECF0E03197F1F78823DF
:1030D00021F084E08093850603C084E08093860617
:1030E00088EC90E00197F1F708950F931F93CF9329
:1030F000DF93E0E8F6E094E09683918395838AE697
:10310000282F2A95F1F796838A95F1F7C7E0D0E04A
:1031100005E510E0C8010C2E02C0959587950A942C
:10312000E2F781700E945A182197A0F781E00E946F
:103130005A180E943C180297F1F484E080938106AB
:10314000C7E0D0E000EA10E0C8010C2E02C095955F
:1031500087950A94E2F781700E945A182197A0F788
:1031600081E00E945A180E943C188230910529F093
:1031700080E090E002C083E090E0DF91CF911F916A
:103180000F910895FF920F931F93CF93DF93082F12
:10319000F62E84E080938106C7E0D0E010E0C801FD
:1031A0000C2E02C0959587950A94E2F781700E94D3
:1031B0005A182197A0F78F2D0E945A180E943C1888
:1031C000DF91CF911F910F91FF900895BF92CF9201
:1031D000DF92EF92FF920F931F93CF93DF931F9293
:1031E000CDB7DEB77C01B62E84E080938206F7016E
:1031F0001082198207E010E0CC24C394D12CCE01B8
:1032000001960E941A189981992359F0F70190812B
:103210009601002E02C0220F331F0A94E2F7292BD9
:1032200020830150110958F700E816E06894FF2444
:10323000F2F8F801F1828B2D0E945A18F801F282FF
:103240000E943C180F90DF91CF911F910F91FF903A
:10325000EF90DF90CF90BF900895E0E8F6E0818591
:103260008370818781E0868390819093393B98E0D9
:10327000968324E021832683858380EC92E1DC0120
:103280001197F1F725830197F1F70895E0E8F6E04B
:1032900081E086838091393B80838185837084605F
:1032A0008187089580E890E00895AF92BF92CF9211
:1032B000DF92EF92FF920F931F93CF93DF93A82E8D
:1032C000B92E8B01E42EF52EF8940E942D190E9440
:1032D0007518EC010097A9F561E083E00E94C2181F
:1032E000EC01009771F561E08F2D0E94C218EC018E
:1032F000009739F561E08E2D0E94C218EC0100970D
:10330000C1F01FC08FEFC81AD80A8FEFE81AF80A69
:10331000E016F10630F060E0C6010E94E618EC010C
:1033200010C061E0C6010E94E618EC01009751F35D
:1033300008C00115110529F0CA2CDB2CE12CF12C59
:10334000E4CF0E9446197894CE01DF91CF911F916E
:103350000F91FF90EF90DF90CF90BF90AF900895C6
:10336000CF92DF92EF92FF920F931F93CF93DF9351
:103370007C01062F172FC42ED52EF8940E942D19EC
:103380000E947518EC01009709F048C060E086E9DA
:103390000E94C218EC010E944619209709F040C013
:1033A0000E942D190E947518EC010097C9F561E083
:1033B0008CE60E94C218EC01009791F561E0812F24
:1033C0000E94C218EC01009759F561E0802F807FC0
:1033D0000E94C218EC01009719F58C2D9D2D8131AA
:1033E000910510F080E190E08C010150110969F025
:1033F000E7016701C00ED11E61E089910E94C218E9
:10340000892B19F4CC15DD05B9F7F701E00FF11F91
:1034100060E080810E94C218EC0102C00E9446193F
:10342000789480E89BEB0197F1F70E944619CE0152
:10343000DF91CF911F910F91FF90EF90DF90CF9090
:1034400008958F929F92AF92BF92CF92DF92EF92A8
:10345000FF926091463B70E080E090E00E9455361C
:103460009B01AC0160E070E080E090E40E946E3768
:103470006B017C01609102207091032080910420F7
:10348000909105209B01AC010E94593526E53EE054
:1034900049E450E40E940B374B015C01809101200C
:1034A000682F70E080E090E00E9455369B01AC01EF
:1034B000C501B4010E940B37A70196010E94C135D6
:1034C0006B017C0180910020682F70E080E090E02B
:1034D0000E9455369B01AC01C701B6010E94C1355F
:1034E0000E9429366093062070930720FF90EF908A
:1034F000DF90CF90BF90AF909F908F900895609392
:1035000002207093032080930420909305200E9452
:10351000211A0895882319F080913C3B01C080E076
:1035200080933D3B1092473B1092483B10923F3BAB
:103530001092403B08950F931F9380930120609356
:1035400000204093463B20933C3B0115110519F0A8
:10355000902F812F02C094E883E090933A3B8093B0
:103560003B3B0E94211A1F910F9108956CE47BE16F
:1035700083E090E00E9430120E94211A0895809109
:10358000443B9091453B8F3F2FEF920741F481E000
:103590008093433B1092443B1092453B0895019623
:1035A0008093443B9093453B0895882351F080914C
:1035B0003F3B9091403B019680933F3B9093403B33
:1035C000089580913F3B9091403B019780933F3B12
:1035D0009093403B089580913D3B882369F081E0C2
:1035E00040913A3B50913B3B20913F3B3091403BD7
:1035F000421753070CF080E0089580913F3B909173
:10360000403B08952091413B3091423B28173907B8
:1036100090F4AC01421B530B9A0121303440D0F09E
:103620001092443B1092453B1092433B8093413BA8
:103630009093423B0FC0281B390B2130344050F08F
:103640001092443B1092453B1092433B8093413B88
:103650009093423B8D3258E0950760F020913E3BBD
:10366000211116C081E080933E3B10923F3B1092A7
:10367000403B08958334954070F480913E3B88230D
:1036800051F010923E3B10923F3B1092403B089508
:1036900083349540B0F308950E94E1108E3B91056C
:1036A00018F08E5B910902C080E090E00E94021B3E
:1036B00008951F93CF93DF93EC01188219821B8228
:1036C0001C821D821E821F82188619861A864B87CD
:1036D0005C871D861E861F86188AFC01EF5EFB4FE5
:1036E00010821182329610821182329610823196A7
:1036F00080E28083349611E0108370E080E090E0F7
:103700000E9455369B01AC0160E070E080E090E4DF
:103710000E946E370E9429361A83DF91CF911F9144
:1037200008950F931F93FC01EA5EFB4F608335976A
:1037300021E030E0208331830DEC1BEA20E030E013
:10374000FC01018B128B238B348B262F30E0220F50
:10375000331F220F331F220F331F2230310580F019
:103760007596220F331F220F331F2F5E3F4F820F9C
:10377000931F1192119211921192E817F907C9F74C
:103780001F910F910895CF92DF92EF92FF920F93C6
:103790001F93CF93DF93DB0150E0440F551F440F7D
:1037A000551F440F551F605E7F4F8C010F5E1B4FEE
:1037B000EC01CA5EDB4FF801208131812115310512
:1037C00049F4288130E0220F331F220F331F220FCC
:1037D000331F02C0215031092417350768F4E881EE
:1037E000F0E0EE0FFF1FEE0FFF1FEE0FFF1FE41BB9
:1037F000F50BE20FF31F03C0F901E41BF50BEE0F0D
:10380000FF1FEE0FFF1FE80FF91FC188D288E38862
:10381000F488CD92DD92ED92FD924F5F5F4FA61737
:10382000B70749F6DF91CF911F910F91FF90EF906D
:10383000DF90CF900895FC01E55EFB4F8081918180
:10384000DA018D939C93808191818C549B4A21E075
:103850008936994A08F420E0FB0120830895CF922D
:10386000DF92EF92FF92CF93DF93FC0183819481EB
:10387000A581B681840F951FA61FB71F6C017D011E
:10388000BB232CF42FEFC21AD20AE20AF20AF594F3
:10389000E794D794C794DF01AB5EBB4F8C9188232C
:1038A00051F18091493B811126C0EF01CF5EDB4F82
:1038B00028813981D901AA0FBB1FAA0FBB1FAE0FE8
:1038C000BF1F51964D935D936D937C9354972F5FDB
:1038D0003F4F28833983DF01AA5EBB4F8C9190E074
:1038E000880F991F880F991F880F991F281739076C
:1038F00010F0188219822091493B30E0C9010196ED
:10390000DF01A65EBB4F6C9170E00E94DB348093B8
:10391000493B83859485A0E0B0E08C159D05AE05FC
:10392000BF057CF044275527BA01481B590B6A0B89
:103930007B0B81E0C416D506E606F7061CF080E096
:1039400001C081E0DF91CF91FF90EF90DF90CF90A9
:103950000895CF92DF92EF92FF92CF93DF93EC0125
:10396000FC01E95EFB4F8081882381F031968081E4
:1039700091810196808391830F9740F081E0339786
:1039800080833296108231961082118261E0FE01AE
:10399000ED5EFB4F808191810E9423258823E1F118
:1039A000FE01ED5EFB4F61E0808191810E94F12478
:1039B000FE01E55EFB4F808391836A8170E00E9487
:1039C000DB346B01EE24D7FCE094FE2C8F819885CC
:1039D000A985BA85C81AD90AEA0AFB0A8D859E8587
:1039E000AF85B8898C0D9D1DAE1DBF1D8D879E872F
:1039F000AF87B88B88819981019688839983B701B5
:103A0000A601CE010E942F1C91E089270E94261258
:103A1000CB82DC82ED82FE82DF91CF91FF90EF902E
:103A2000DF90CF900895FC01EA5EFB4F208138E0E3
:103A3000239FA0011124222369F0E550F44020E0E7
:103A400030E011921192119211922F5F3F4F241783
:103A50003507B8F308950F931F93CF93DF93EC01CD
:103A60008A0170E080E090E00E9455369B01AC0135
:103A700060E070E080E090E40E946E370E9429369A
:103A8000662311F06A8302C081E08A83FE01ED5E45
:103A9000FB4F61E0808191810E94F124BC01882765
:103AA00077FD8095982F2A8130E040E050E00E9419
:103AB00011352F83388749875A872B833C834D8361
:103AC0005E830B871C87CE010E94131DDF91CF916F
:103AD0001F910F910895CF93DF93EC01CB01FE016D
:103AE000ED5EFB4F6083718361E00E94F124BC01B5
:103AF000882777FD8095982F2A8130E040E050E0BC
:103B00000E9411352F83388749875A872B833C833E
:103B10004D835E83CE010E94131DDF91CF910895E6
:103B20008F929F92AF92BF92CF92DF92EF92FF92CD
:103B30000F931F9360E082E090E00E94F311809168
:103B4000963B823309F043C28091983B811145C274
:103B50003EC28091983B882341F08091993B81112E
:103B600044C280919A3B811140C2E091573BF09151
:103B7000583B81819281A381B481892B8A2B8B2B25
:103B8000F1F58091543B882359F1A091553BB091B8
:103B9000563BE093553BF093563BA093573BB09375
:103BA000583B10929B3B10929C3B10929D3B109275
:103BB0009E3B51968C91882349F060E081E090E033
:103BC0000E94F31181E08093973B07C061E081E0A0
:103BD00090E00E94F3111092973B1092543B0FC05B
:103BE0008091993B882359F0E0914A3BF0914B3BFF
:103BF000309709F431C28081806180832DC2809129
:103C0000993B882309F428C2E091573BF091583B37
:103C10008289882319F081E08093983B8185928581
:103C2000A385B4854581568167817085840F951F72
:103C3000A61FB71F85839683A783B0878091973B84
:103C4000882329F085819681A781B0850BC0858165
:103C50009681A781B085B095A095909581959F4F4D
:103C6000AF4FBF4F4585568567857089452B462BDD
:103C7000472B09F4C0C12091953B2111DCC1BBC188
:103C800040917F3B5091803B6091813B7091823BA2
:103C90002091533B6C017D01C41AD50AE60AF70A4C
:103CA000B701A60104C0440F551F661F771F2A9550
:103CB000D2F741305105610501E0700724F040E082
:103CC00050E060E071E04115510561051FEF71079B
:103CD00024F440E050E060E07FEF2091533B6A0124
:103CE0007B0104C0F594E794D794C7942A95D2F742
:103CF000970186016C017D01C01AD10AE20AF30A1C
:103D0000EFE7FBE3C082D182E282F382480F591FC2
:103D10006A1F7B1F448355836683778321E0258B4D
:103D2000DBC0EFE7FBE3C080D180E280F380448119
:103D30005581668177814C195D096E097F090AF406
:103D400042C08090903B9090913BA090923BB0906D
:103D5000933B00914E3B10914F3B2091503B309153
:103D6000513B30952095109501951F4F2F4F3F4F98
:103D7000081519052A053B056CF401891289238968
:103D800034890150110921093109018B128B238BD0
:103D9000348B0FC030918F3B20914D3B321748F44C
:103DA000EFE7FBE3118A128A138A148A20892F5FB6
:103DB000208B20914C3B04C075956795579547958E
:103DC0002A95D2F73DC08090903B9090913BA09077
:103DD000923BB090933B00914E3B10914F3B209112
:103DE000503B3091513B80169106A206B3067CF4FD
:103DF000EFE7FBE301891289238934890F5F1F4FA5
:103E00002F4F3F4F018B128B238B348B0DC0209192
:103E10008F3B222349F0EFE7FBE3118A128A138AD2
:103E2000148A20892150208B30914C3B20918F3B6C
:103E3000230F04C075956795579547952A95D2F736
:103E40004C0D5D1D6E1D7F1DEFE7FBE3408351832D
:103E50006283738322E0258B3FC0EFE7FBE3C480DE
:103E6000D580E680F7804085518562857385C41AC8
:103E7000D50AE60AF70A2091523BB701A60104C011
:103E800075956795579547952A95D2F74115510530
:103E90006105710511F4B701A601EFE7FBE30085A9
:103EA000118522853385400F511F621F731F408784
:103EB00051876287738723E0258B0EC0EFE7FBE312
:103EC00040855185628573854487558766877787E6
:103ED000158A02C01092943BE091573BF091583BF9
:103EE000458556856785708921E0452B462B472BF4
:103EF00009F420E0EFE7FBE3268B40919B3B5091D8
:103F00009C3B60919D3B70919E3BC484D584E6842C
:103F1000F784C40ED51EE61EF71E4C255D256E25C2
:103F20007F25772334F580959095A095B0954C0129
:103F30005D018824B7FC83949924AA24BB24BB2365
:103F40004CF460E081E090E00E94F31181E0809306
:103F5000973B07C061E081E090E00E94F31110926E
:103F6000973B61E082E090E00E94F311882D0E946F
:103F7000D51AC0929B3BD0929C3BE0929D3BF09225
:103F80009E3BE091573BF091583B81819281A38108
:103F9000B481892B8A2B8B2B59F081819281A3814B
:103FA000B4810197A109B10981839283A383B4836A
:103FB00081819281A381B481892B8A2B8B2B09F07B
:103FC0004BC08091543B882309F443C045C061E055
:103FD00083E090E00E94F311BCCD60E083E090E0CC
:103FE0000E94F3111092963BB4CDE6E9FBE3808189
:103FF0008F5F8083BACDEFE7FBE380839183A28359
:10400000B38384839583A683B78380879187A287B0
:10401000B38784879587A687B78740914E3B509199
:104020004F3B6091503B7091513B418B528B638B66
:10403000748B108A51CF2091943B213009F471CEBA
:1040400008F41ECE223009F408CF233009F436CF0D
:1040500041CF1092993B10821F910F91FF90EF90EA
:10406000DF90CF90BF90AF909F908F9008958091F8
:10407000983B0895EFE7FBE31082118212821382CE
:104080001482158216821782108611861286138674
:104090001486158616861786108A118A128A138A44
:1040A000148A158A168A4081518162817381448104
:1040B0005581668177814085518562857385448508
:1040C00055856685778520894189528963897489F8
:1040D00025892689E9E5FBE3E093573BF093583BBC
:1040E0002CE63BE32093553B3093563B10821182E4
:1040F000128213821482158216821782108611860C
:10410000128613861486158616861786108A118ADB
:10411000128A208141815281638174814581568157
:10412000678170854185528563857485458556858F
:104130006785708921892289138A148A158A168ACB
:10414000178A108E118E128E138E148E158E168E67
:10415000178E10A211A212A213A214A215A22389D3
:104160004489558966897789408D518D628D738D1B
:10417000448D558D668D778D40A151A162A173A1AB
:1041800024A125A180934A3B90934B3B60E97DE1BC
:1041900084E090E00E9430120895E6E9FBE3138288
:1041A000148282E380831582168217821086109211
:1041B0007F3B1092803B1092813B1092823BE091BA
:1041C000573BF091583B1182128213821482E09186
:1041D000553BF091563B1182128213821482109249
:1041E000543B08950E94CD2060E080E090E00E9462
:1041F000F31161E083E090E00E94F31108958823B9
:1042000021F081E080939A3B08950E94CD2008958B
:104210009091983B992331F0811116C008C081110B
:104220000CC008959091983B911112C0F8CFE6E927
:10423000FBE3128282E380830895E6E9FBE382E3F5
:10424000808381E0828308958091983B8823A9F33D
:1042500008959091543B81E0892708952F923F92D1
:104260004F925F926F927F928F929F92AF92BF9286
:10427000CF92DF92EF92FF920F931F93CF93DF9332
:1042800000D01F92CDB7DEB71C012A013B01098384
:104290001A832B833C8361E082E090E00E94890FC7
:1042A000C114D104E104F10439F460E082E090E04B
:1042B0000E94890F80E077C08091543B882339F0B9
:1042C00060E082E090E00E94890F8AE86CC061E0C3
:1042D00080E090E00E94F311772044F40F2E4424F4
:1042E0004A94542C642CFFE77F2EF02D832D80956B
:1042F000881F8827881F91E0232809F490E0E09127
:10430000553BF091563B9083C182D282E382F48286
:10431000458256826782708629813A814B815C8111
:10432000218732874387548785869686A786B08AF9
:10433000818B8A8D828B808181819281A381B481DE
:1043400085819681A781B08581859285A385B48575
:1043500085859685A785B08981898289A0914A3B08
:10436000B0914B3B109749F0418152816381748138
:10437000413051056048710590F40E94D71081E0EA
:104380008093543BE6E9FBE3838314820E94D910B7
:1043900060E082E090E00E94890F80E004C08C9190
:1043A00084608C93EACF2496CDBFDEBFDF91CF919E
:1043B0001F910F91FF90EF90DF90CF90BF90AF9043
:1043C0009F908F907F906F905F904F903F902F9035
:1043D0000895E091573BF091583B61817281838150
:1043E00094810895EF920F93ECE4FBE38083618363
:1043F00022833383448355830683E782EFE7FBE31D
:104400001082118212821382148215821682178200
:1044100010861186128613861486158616861786D0
:10442000608B118A128A138A148A158A168A8081EF
:104430009181A281B38184819581A681B781808594
:104440009185A285B38584859585A685B785808964
:1044500081899289A389B489858986890F91EF9092
:104460000895E091573BF091583B80810895E6E92B
:10447000FBE382E38083118212821382148215820D
:10448000168217821086EFE7FBE3158A168AE9E5A4
:10449000FBE310821182128213821482158216822B
:1044A0001782108611861286138614861586168644
:1044B0001786108A118A128A138A148A158A168A14
:1044C000178A108E118E128E138E148E158E168EE4
:1044D000178E10A211A212A213A214A215A2ECE42C
:1044E000FBE3108283E0818312821382148215829F
:1044F000168217820895DC01FC0138969C01205D2C
:104500003F4F1192119211921192E217F307C9F7DE
:10451000D5961D921D921D921C92D897D1961D92F0
:104520001D921D921C92D497D0961C92D0971D92EA
:104530001D921D921C92139714961D921D921D920E
:104540001C9217970895CF92DF92EF92FF920F93EC
:104550001F93FC0141AF52AF63AF74AFFD96008370
:104560001183228333833496C082D182E282F38224
:104570001F910F91FF90EF90DF90CF9008952F92B1
:104580003F924F925F926F927F928F929F92AF92E3
:10459000BF92CF92DF92EF92FF920F931F93CF9330
:1045A000DF93EC0184E6869F6001879FD00C112485
:1045B000C6016AE070E00E94DB34AB01662757FD5C
:1045C0006095762F8DA89EA8AFA8B8AC480D591D50
:1045D0006A1D7B1D413107E25007610571054CF0F2
:1045E00080E197E2A0E0B0E08DAB9EABAFABB8AF9F
:1045F00014C0403F18ED51071FEF610771072CF001
:104600004DAB5EAB6FAB78AF08C080EF98EDAFEF0E
:10461000BFEF8DAB9EABAFABB8AFEE24D7FCE09451
:10462000FE2C69AD7AAD8BAD9CADA70196010E94C1
:10463000CB340F2EF4E68F2E912CA12CB12CF02D23
:10464000A50194010E94113529013A01288339837B
:104650004A835B83FE01FD962DA93EA94FA958AD63
:1046600060817181828193810E94CB34A501940184
:104670000E94113549015A012C833D834E835F838B
:1046800088A990E0FC013296EE0FFF1FEE0FFF1F8E
:10469000EC0FFD1FC082D182E282F38201966AE0B4
:1046A00070E00E94DB3488AB1E0121E4220E311C35
:1046B000FC01FF273296EE0FFF1FEE0FFF1FEC0FDE
:1046C000FD1F4081518162817381D701C601841B26
:1046D000950BA60BB70BAC01BD01440F551F661F10
:1046E000771F8A019B01000F111F221F331F000F2C
:1046F000111F221F331FDB01CA01800F911FA21F50
:10470000B31F9C01AD01D1016D917D918D919C9163
:104710000E94CB34C9AADAAAEBAAFCAA840C951C85
:10472000A61CB71CDC01CB01880D991DAA1DBB1D61
:104730008033E8EF9E07EFEFAE07BE0724F480E377
:1047400098EFAFEFBFEF813DF7E09F07A105B105FF
:1047500024F080ED97E0A0E0B0E0DF91CF911F91D1
:104760000F91FF90EF90DF90CF90BF90AF909F9010
:104770008F907F906F905F904F903F902F90089513
:104780000F931F93CF93DF93FB01D281CFEFCD0F18
:104790002C2F332727FD3095332314F42F5F3F4F01
:1047A0003595279512160CF075C06081718130E047
:1047B000DB0144E02402A00DB11D11244D915C9158
:1047C000841795078CF4422F552747FD5095430FCA
:1047D000511D37FD5A95552314F44F5F5F4F559582
:1047E0004795C22F242F10C04C2F552747FD5095B9
:1047F000420F511D27FD5A95552314F44F5F5F4F0B
:1048000055954795322F242F321794F2608171818C
:10481000AB01E4E03E02400D511D1124FA01A081DC
:10482000B18102811381FB0124E0C202E00DF11D80
:1048300011246081718142815381311103C08A1733
:104840009B0714F1EC2FFF27E7FDF0952D2F30E0AB
:1048500021503109E217F30719F468177907BCF002
:104860009C012A1B3B0B401B510B249FC001259F21
:10487000900D349F900D11246A1B7B0B0E94DB343A
:10488000C801860F971F17C08FEF9FE714C081E004
:1048900090E811C00190F081E02DA081B1810281EA
:1048A000138144E0C402E00DF11D11246081718187
:1048B00042815381C4CFDF91CF911F910F91089511
:1048C000FC01608371830895EF92FF920F931F9311
:1048D000CF93DF93EC018B0160E0888199810E9486
:1048E000F1249C012B5939492B3C3C4C28F0F80110
:1048F0001082118283E424C066E170E20E94C0232A
:104900007C0162E0888199810E94F1248E0D9F1DB7
:104910009C012D503E4F273E334028F0F801108275
:10492000118282E40DC08C32F1E09F072CF4F80173
:104930008083918380E004C0F801108211828AE4B0
:10494000DF91CF911F910F91FF90EF900895CF933A
:10495000DF93CDB7DEB72897CDBFDEBFFC0182E085
:10496000818382831382878590898D839E838F8341
:10497000988719821A821B821C8242E0BE016F5FF7
:104980007F4FCE0105960E9456112896CDBFDEBFFF
:10499000DF91CF910895CF93DF93EC0180939F3BFC
:1049A0009093A03B82EE9AE08B879C8782EE94E303
:1049B0008D879E8782EF90E08F87988B1D821E8265
:1049C00019861A861F82188618826CED75E286E0B9
:1049D00090E00E943012CE010E94A724DF91CF9177
:1049E0000895EF92FF920F931F93CF937C01C62FF0
:1049F0000E94D710C13041F018F0C23049F00CC00D
:104A0000F701078110850AC0F7010185128506C0EC
:104A1000F7010581168102C000E010E021E030E0DE
:104A200002C0220F331FCA95E2F72095F70180815B
:104A3000282320830E94D910C801CF911F910F9184
:104A4000FF90EF900895FC01808190E002C0959561
:104A500087956A95E2F781700895FC01828990E05C
:104A60000895CF93DF93EC010E94D7109A899F5F3E
:104A70009A8B0E94D910DF91CF910895FC01818912
:104A80000895FC01118A08950F931F93CF93DF932C
:104A9000CDB7DEB72997CDBFDEBF8C01662319F0F5
:104AA00081E0F801818BCE0109960E943511F80151
:104AB000128A8181813041F018F0823049F00CC0B7
:104AC000F801838594850AC0F8018585968506C01E
:104AD000F8018785908902C080E090E08D839E83F5
:104AE0008F83988719821A821B821C8242E0BE0142
:104AF0006F5F7F4FCE0105960E94561189819A8182
:104B00002D813E812F5F3F4F4B815C8124173507FC
:104B100041F5F8012281213099F070F0223099F4AA
:104B20006DE870E296958795969587950E94C023CB
:104B3000F8018583968307C0F8018783908703C0B7
:104B4000F8018187928781E090E0F801028002C03D
:104B5000880F991F0A94E2F79081892B808390E057
:104B600001C095E4F80181818283813041F018F021
:104B7000823091F013C081E0F80181830FC0F80109
:104B800083818F5F8383883720F0138282E0818363
:104B900005C0F801118202C0F8011182F801948366
:104BA000CE0109960E944B112996CDBFDEBFDF9141
:104BB000CF911F910F91089580919F3B9091A03BC1
:104BC000009719F061E00E9444250895CF92DF928A
:104BD000EF92FF920F931F93F62EEE24DD24CC2448
:104BE000092F1127222733270C0D1D1D2E1D3F1DB8
:104BF000C72ED82EE92EFF24CC24EE24FF240C0D42
:104C00001D1D2E1D3F1DDC01CB018827AA27BB27B8
:104C1000BA2FA92F982F8827BC01CD01600F711FD3
:104C2000821F931F1F910F91FF90EF90DF90CF9005
:104C300008950F931F93CF93DF93EC0118821A828C
:104C40001B8244EF51E061E004960E94591BFE0173
:104C5000EF5DFB4F83E08083339683E1DF011D929C
:104C60008A95E9F7118A128A8E01095C1B4FBF01F0
:104C7000C8010E946024FE01E35CFB4F84EB90E0DE
:104C8000808391838CE390E08283938394E1948387
:104C90009583968317821086118612861386148652
:104CA000EB5AFF4F108231961082118232960083A8
:104CB00011833296108211823296108211823296BE
:104CC0001082319610823196108231961082319680
:104CD00010821182369682E3808331968AE0808347
:104CE000319610821182329610823196108231965E
:104CF0001082319610821182329610821182329681
:104D00001082319686E3808331961082319610822C
:104D10003196108231961082319610821182128261
:104D2000138234961082118212821382349610827A
:104D3000118212821382349610823196108231963B
:104D400010823196108231961082319681E08083F4
:104D50003196108231961082319684EC92E28083F3
:104D600091833296108231961082118212821382C0
:104D70001482158216821782108611861286138677
:104D80001486E75BFF4F10823196108232961082B4
:104D90001092A83BC093A63BD093A73BCE5DDB4FC0
:104DA00018821982DF91CF911F910F910895089574
:104DB000CF93DF93EC010E94EA108091082090913C
:104DC00009200097E9F1EAE0F0E240E050E04817FE
:104DD000590708F4AC01819191910097C1F7FE0148
:104DE000FB5FCE0186529B4F808391834115510515
:104DF00059F0FC019A0126523B4F2C0F3D1F9AEAB5
:104E00009193E217F307E1F7FE01EE5FFA4FCE014F
:104E1000805F9A4F1192E817F907E1F7C85EDA4F01
:104E200048836CE27DE281E090E00E94301265E10F
:104E30007DE280E090E00E9430120E94E61009C0FE
:104E4000FE01FB5F9E0126523B4F20833183AC0164
:104E5000DBCFDF91CF910895662391F0FC01ED54F3
:104E6000FB4F2081261305C0319620812F5F2083C0
:104E70000BC0FC01ED54FB4F60833196108204C0DF
:104E8000FC01EC54FB4F1082FC01EC54FB4F81E021
:104E90009081953108F480E00895DF92EF92FF92BF
:104EA0000F931F93CF93DF938B017A01FC01E055A1
:104EB000FB4F20812530B9F4E05BFF4F0190F0817A
:104EC000E02DE081F0E0F595E795F595E795F5950E
:104ED000E795F595E795F595E795EE0FFF1FE85FE8
:104EE000FF4DD08007C0222309F451C0FC01E85EC9
:104EF000FA4FD080B7016F5F7F4F62957295707FD8
:104F00007627607F7627FC01FB5F0190F081E02D22
:104F1000C081D0E0D595C795D595C795D595C7954E
:104F2000D595C795D595C795CC0FDD1FC85FDF4DCB
:104F3000288139816217730790F420E1F8012183F9
:104F4000E082D8011296680F791FFB01E653FB4FF0
:104F500080E101900D928A95E1F782E019C0F80195
:104F6000E192605171094D2D50E0461B570B9C0199
:104F700026523B4F620F731FCF010E94D338F0E1DE
:104F8000EF9ED0181124F801D18281E001C080E0A9
:104F9000DF91CF911F910F91FF90EF90DF900895D7
:104FA0008F929F92AF92BF92CF92DF92EF92FF9239
:104FB0000F931F93CF93DF937C014A015B01EC01B8
:104FC000CF52DB4F12C0088119812A813B810F5FCC
:104FD0001F4F2F4F3F4F088319832A833B830E9423
:104FE000EE11861A970AA80AB90A0E94EE118616CF
:104FF0009706A806B90638F7F701EE5EFA4F8081EA
:105000009181A281B381880E991EAA1EBB1E808247
:105010009182A282B3820E94EE1186169706A8069C
:10502000B90608F1F701EF52FB4F80819181A2810F
:10503000B3810196A11DB11D80839183A283B383A7
:105040000E94EE11F701EE5EFA4F0081118122817C
:10505000338168017901C61AD70AE80AF90AC082C1
:10506000D182E282F382DF91CF911F910F91FF9065
:10507000EF90DF90CF90BF90AF909F908F9008956A
:105080009B01FC01EB52FB4F408151816281738196
:10509000420F531F611D711D4083518362837383CF
:1050A0000895CF92DF92EF92FF92CF93DF93FC01AE
:1050B0002081222399F1EC010E94E611FE01EE53BA
:1050C000FB4F9081992321F1882329F0C255DB4FB2
:1050D0001882198223C0FE01E255FB4FC080D180A7
:1050E000E12CF12C84EF91E00E9418126C157D05E3
:1050F0008E059F0520F4CE53DB4F18820FC0C2559A
:10510000DB4F288139812F5F3F4F2883398306C0C9
:10511000882321F0CE53DB4F81E08883DF91CF914C
:10512000FF90EF90DF90CF900895FC01EE53FB4F7E
:10513000808108950F931F93DC01A654BB4FFC019F
:10514000E254FB4F408151816281738140955095BB
:105150006095709581E00D911D912D913C914017C6
:1051600051076207730708F080E01F910F910895BF
:10517000CF93DF93FC01EA53FB4F2081222309F4F4
:1051800051C0EC010E949A28811130C0FE01E45305
:10519000FB4F108235978081882309F44FC09E0110
:1051A00022543B4FF90140815181628173813497D0
:1051B00080819181A281B381840F951FA61FB71FA3
:1051C00080839183A283B383F901108211821282BA
:1051D00013823996108233964081518160E070E0ED
:1051E000481759076A077B0738F40CC081E0FE01B5
:1051F000E453FB4F808306C0FE01E453FB4F8081E4
:10520000882361F0FE01E654FB4F10821182128266
:105210001382CB53DB4F81E0888322C0CB53DB4F1B
:1052200018821EC0FC01E654FB4F108211821282CC
:105230001382EC01CB53DB4F188212C0FE01E65300
:10524000FB4F80819181A0E0B0E070974081518157
:105250006281738184179507A607B707F8F6D2CF46
:10526000DF91CF9108951F93CF93DF9382E090E079
:105270000E94A10F20E1829FE0011124C4FF02C01F
:105280001C2F0AC082E090E00E94E00F20E2829F83
:10529000C00111241C2F182B83E090E00E94A10F65
:1052A00020E4829FC0011124EC01C12B8C2FC6FD8C
:1052B00009C083E090E00E94E00F20E8829FC001D7
:1052C00011248C2BDF91CF911F910895CF93DF9301
:1052D000FB01DC01A055BB4F2C91253029F0108239
:1052E00011821282138217C0DC01BB5FCD91DC9169
:1052F00011978C818383CD91DC9111978B8182836F
:10530000CD91DC9111978A8181830D90BC91A02D64
:1053100011968C918083DF91CF910895FC01E05527
:10532000FB4F2081253079F4BA96808190E09595E5
:105330008795959587959595879595958795959555
:105340008795FB0180830895FB01DC01A055BB4FCD
:105350002C91253091F55D9613962C91139720830F
:1053600012962C911297218311962C9111972283DA
:105370002C912383149613962C91139724831296C1
:105380002C911297258311962C91119726832C919D
:105390002783149613962C911397208712962C919D
:1053A0001297218711962C91119722872C91238790
:1053B00014968C9184878DE0089580E008950F9372
:1053C0001F93CF93DF93FC01E055FB4F20812223F5
:1053D00009F455C0EC017D9680819181A281B38151
:1053E0008A019B01080F191F2A1F3B1FC901B80121
:1053F00000831183228333830E94E625FE01EC5F44
:10540000FA4F6083718382839383F3976081718104
:10541000828193810E94E625FE01E85FFA4F608356
:10542000718382839383F3976081718182819381F9
:105430000E94E625FE01E45FFA4F60837183828358
:1054400093833496DE01A752BB4F8C9180833796AD
:10545000908174974081242F30E02F5F3F4F22309E
:10546000310550F050E04D5F5A4F4C0F5D1F2191B8
:10547000920FE417F507D9F7CE5FDA4F9883DF91E3
:10548000CF911F910F9108952F923F924F925F926B
:105490006F927F928F929F92AF92BF92CF92DF9244
:1054A000EF92FF920F931F93CF93DF9300D000D022
:1054B000CDB7DEB78D839E83FC01E853FB4F10828E
:1054C000DC011C9231961082662309F470C0FB96B1
:1054D00060817181828193810E94E625ED81FE8148
:1054E000E353FB4F6083718382839383ED81FE815D
:1054F000E85FFA4F60817181828193810E94E62585
:10550000ED81FE81EF52FB4F608371838283938331
:10551000ED81FE81E45FFA4F608171818281938128
:105520000E94E625ED81FE81EB52FB4F6083718383
:1055300082839383ED81FE81E05FFA4F8081ED816C
:10554000FE81E752FB4F8083ED81FE81EE5EFA4FD4
:105550001082118212821382ED81FE81ED5FFA4F7B
:1055600080818F30F0F0ED81FE81EE5FFA4F808117
:10557000ED81FE81E95EFA4F8083ED81FE81ED5F72
:10558000FA4F2D813E812F5E3A4FAD81BE81A95EDB
:10559000BA4F91918C91891B8C93E217F307C9F74D
:1055A00027C1ED81FE81E95EFA4F108221C1ED81B4
:1055B000FE81E353FB4F1082118212821382ED8130
:1055C000FE81EF52FB4F1082118212821382ED8115
:1055D000FE81EB52FB4F1082118212821382ED8109
:1055E000FE81E752FB4F10828EE0ED81FE81ED5F80
:1055F000FA4F8083FDC0F1016789708D818D928D96
:105600000E94E6254B015C01D10153966D917D917D
:105610008D919C9156970E94E6256B017C01F101CA
:1056200067857089818992890E94E6252B013C015A
:1056300009C0C12CD12C7601412C512C3201812C76
:10564000912C5401D10193962C91939795964C915E
:10565000959750E080E090E094969C91A0E0B0E0B7
:10566000840F951FA11DB11D8C010CC0C12CD12C24
:105670007601412C512C3201812C912C540100E0F7
:1056800010E020E0F1018581ED81FE81EB54FB4FBC
:105690008083D10117968C9180FF04C091E0ED8149
:1056A000FE81908381FF06C091E0ED81FE81E85389
:1056B000FB4F908382FF06C081E0ED81FE81E753BE
:1056C000FB4F8083D1015D964C915D9750E080E067
:1056D00090E05C969C91A0E0B0E0840F951FA11D26
:1056E000B11D89839A83F101978D80E0980F9B8388
:1056F00091A1980F9C8381856085662321F040E00D
:105700000E949B1A0EC0ED81FE81EF54FB4F8081F9
:105710008150883530F088E5ED81FE81EF54FB4FF4
:10572000808381149104A104B104A9F541145104AA
:105730006104710481F5C114D104E104F10459F547
:10574000C12CD12C76016894C4F80F2EF8EC4F2EA2
:10575000512C612C712CF02D0F2EFCE18F2E912CF1
:10576000A12CB12CF02D17C01C821B8219821A8229
:10577000C12CD12C76016894C4F80F2EF8EC4F2E72
:10578000512C612C712CF02D0F2EFCE18F2E912CC1
:10579000A12CB12CF02DED81FE81EF55FB4F8981BD
:1057A0009A8180839183ED81FE81EB55FB4F9B8134
:1057B0009083ED81FE81EA55FB4FAC81A083ED81A2
:1057C000FE81ED56FB4F8AE090E0808391832D802F
:1057D0003E80B3EB2B1ABBEF3B0A95018401B3016A
:1057E000A201C1010E94A322C1010E947B221EC00E
:1057F000ED81FE81FB5F20803180F101808190E0AE
:105800009595879595958795959587959595879580
:10581000959587958430910509F40BCF85309105D6
:1058200009F4E9CE039709F09FCF20CF2696CDBF8C
:10583000DEBFDF91CF911F910F91FF90EF90DF902E
:10584000CF90BF90AF909F908F907F906F905F9020
:105850004F903F902F900895EF920F93CF93DF9347
:10586000FC01428153814115510591F0EC010F2E4D
:10587000F5E0EF2EF02D05E025E060E070E08652C7
:105880009B4F0E9469328A3821F01A821B8201C024
:105890008BE8DF91CF910F91EF900895CF93DF9335
:1058A000EC01FC01E45AFF4F108211823296108203
:1058B00011827396108211823F97108231968081F7
:1058C000882331F080EC9DE531968083918305C07B
:1058D000FE01EC59FF4F10821182198A1882198239
:1058E0000E94B310CE0142960E947B2280E00E946B
:1058F000DB1019861A861D861E86DF91CF910895CA
:105900001F93CF93DF93EC01162F862F90E0893001
:10591000910508F083C0FC018827EA58FE4F8F4F9D
:105920000C943035CE01855C9B4F0E944E2CFE01BD
:10593000E256FB4F8081882331F080EC9DE5319663
:105940008083918305C0FE01E156FB4F10821182D6
:10595000FE01E55CFB4F118A0E94EA10FE01E8534C
:10596000FB4F108218823196108236971082EB5AC4
:10597000FF4F408150E060E070E0CE0186529B4FC7
:105980000E94DC38FE01EA5EFA4F10820E947834F1
:1059900045C0FE01EF5DFB4F8081882311F08150EF
:1059A0008083FE01EA5EFA4F108238C00E94201107
:1059B000FE01EA5EFA4F108231C0FE01EA5EFA4F44
:1059C000108283E0E55FF109808328C00E942011E6
:1059D00081E0FE01EA5EFA4F8083CE01855C9B4F39
:1059E0000E944E2CFE01E256FB4F8081882331F04D
:1059F00080EC9DE531968083918305C0FE01E156E0
:105A0000FB4F10821182FE01E55CFB4F118A0E9460
:105A1000201183E0FE01EF5DFB4F8083C055DB4F1B
:105A20001883DF91CF911F9108958091A63B9091AB
:105A3000A73B892B81F0E091A63BF091A73BE05575
:105A4000FB4F8081853039F08091A63B9091A73B38
:105A500062E00E94802C08958091A63B9091A73B24
:105A6000892B79F0E091A63BF091A73BEF5DFB4FCE
:105A700083E080838091A63B9091A73B60E00E94E9
:105A8000802C0895FF920F931F93CF93DF93EC0127
:105A9000162FF42E052F68E00E94802C80E1189FBD
:105AA000B0011124AF2DB02FFB01E652FB4FEC0FDC
:105AB000FD1F9B0126513B4F2C0F3D1F9D91919344
:105AC000E217F307D9F7605F7F4F8A819B818617C2
:105AD000970710F46A837B83DF91CF911F910F9119
